{
  "_format": "hh-sol-artifact-1",
  "contractName": "Donate",
  "sourceName": "contracts/Donate.sol",
  "abi": [
    {
      "inputs": [
        {
          "internalType": "address",
          "name": "_token",
          "type": "address"
        }
      ],
      "stateMutability": "nonpayable",
      "type": "constructor"
    },
    {
      "inputs": [],
      "name": "Opening",
      "outputs": [],
      "stateMutability": "nonpayable",
      "type": "function"
    },
    {
      "inputs": [
        {
          "internalType": "address",
          "name": "_to",
          "type": "address"
        },
        {
          "internalType": "uint256",
          "name": "_amount",
          "type": "uint256"
        }
      ],
      "name": "Transfers",
      "outputs": [],
      "stateMutability": "nonpayable",
      "type": "function"
    },
    {
      "inputs": [
        {
          "internalType": "address",
          "name": "",
          "type": "address"
        }
      ],
      "name": "VirtualAccounts",
      "outputs": [
        {
          "internalType": "uint256",
          "name": "check",
          "type": "uint256"
        },
        {
          "internalType": "address",
          "name": "owner",
          "type": "address"
        },
        {
          "internalType": "uint256",
          "name": "savingAmount",
          "type": "uint256"
        },
        {
          "internalType": "uint256",
          "name": "restriction",
          "type": "uint256"
        }
      ],
      "stateMutability": "view",
      "type": "function"
    },
    {
      "inputs": [],
      "name": "Withdrawal",
      "outputs": [],
      "stateMutability": "payable",
      "type": "function"
    },
    {
      "inputs": [],
      "name": "getVirtualAccountBalance",
      "outputs": [
        {
          "internalType": "uint256",
          "name": "",
          "type": "uint256"
        }
      ],
      "stateMutability": "view",
      "type": "function"
    },
    {
      "inputs": [],
      "name": "owner",
      "outputs": [
        {
          "internalType": "address",
          "name": "",
          "type": "address"
        }
      ],
      "stateMutability": "view",
      "type": "function"
    },
    {
      "inputs": [],
      "name": "token",
      "outputs": [
        {
          "internalType": "contract IERC20",
          "name": "",
          "type": "address"
        }
      ],
      "stateMutability": "view",
      "type": "function"
    }
  ],
  "bytecode": "0x60806040523480156200001157600080fd5b5060405162001547380380620015478339818101604052810190620000379190620000d6565b336000806101000a81548173ffffffffffffffffffffffffffffffffffffffff021916908373ffffffffffffffffffffffffffffffffffffffff16021790555080600160006101000a81548173ffffffffffffffffffffffffffffffffffffffff021916908373ffffffffffffffffffffffffffffffffffffffff1602179055505062000150565b600081519050620000d08162000136565b92915050565b600060208284031215620000e957600080fd5b6000620000f984828501620000bf565b91505092915050565b60006200010f8262000116565b9050919050565b600073ffffffffffffffffffffffffffffffffffffffff82169050919050565b620001418162000102565b81146200014d57600080fd5b50565b6113e780620001606000396000f3fe6080604052600436106100705760003560e01c8063422a80861161004e578063422a8086146100f757806370e44c6a146101205780638da5cb5b1461012a578063fc0c546a1461015557610070565b80630a77cbb0146100755780632e4c6d3a146100b5578063359302e6146100cc575b600080fd5b34801561008157600080fd5b5061009c60048036038101906100979190610bf6565b610180565b6040516100ac9493929190610fa3565b60405180910390f35b3480156100c157600080fd5b506100ca6101d0565b005b3480156100d857600080fd5b506100e161033d565b6040516100ee9190610f88565b60405180910390f35b34801561010357600080fd5b5061011e60048036038101906101199190610c1f565b61040c565b005b6101286105de565b005b34801561013657600080fd5b5061013f610b58565b60405161014c9190610df2565b60405180910390f35b34801561016157600080fd5b5061016a610b7c565b6040516101779190610e6d565b60405180910390f35b60026020528060005260406000206000915090508060000154908060010160009054906101000a900473ffffffffffffffffffffffffffffffffffffffff16908060020154908060030154905084565b6000600260003373ffffffffffffffffffffffffffffffffffffffff1673ffffffffffffffffffffffffffffffffffffffff1681526020019081526020016000206000015414610255576040517f08c379a000000000000000000000000000000000000000000000000000000000815260040161024c90610ee8565b60405180910390fd5b60006040518060800160405280600181526020013373ffffffffffffffffffffffffffffffffffffffff1681526020016000815260200142815250905080600260003373ffffffffffffffffffffffffffffffffffffffff1673ffffffffffffffffffffffffffffffffffffffff1681526020019081526020016000206000820151816000015560208201518160010160006101000a81548173ffffffffffffffffffffffffffffffffffffffff021916908373ffffffffffffffffffffffffffffffffffffffff160217905550604082015181600201556060820151816003015590505050565b60006001600260003373ffffffffffffffffffffffffffffffffffffffff1673ffffffffffffffffffffffffffffffffffffffff16815260200190815260200160002060000154146103c4576040517f08c379a00000000000000000000000000000000000000000000000000000000081526004016103bb90610f28565b60405180910390fd5b600260003373ffffffffffffffffffffffffffffffffffffffff1673ffffffffffffffffffffffffffffffffffffffff16815260200190815260200160002060020154905090565b6001600260008473ffffffffffffffffffffffffffffffffffffffff1673ffffffffffffffffffffffffffffffffffffffff1681526020019081526020016000206000015414610491576040517f08c379a000000000000000000000000000000000000000000000000000000000815260040161048890610f08565b60405180910390fd5b600160009054906101000a900473ffffffffffffffffffffffffffffffffffffffff1673ffffffffffffffffffffffffffffffffffffffff166323b872dd3330846040518463ffffffff1660e01b81526004016104f093929190610e0d565b602060405180830381600087803b15801561050a57600080fd5b505af115801561051e573d6000803e3d6000fd5b505050506040513d601f19601f820116820180604052508101906105429190610c5b565b610581576040517f08c379a000000000000000000000000000000000000000000000000000000000815260040161057890610ec8565b60405180910390fd5b80600260008473ffffffffffffffffffffffffffffffffffffffff1673ffffffffffffffffffffffffffffffffffffffff16815260200190815260200160002060020160008282546105d39190610ff9565b925050819055505050565b6001600260003373ffffffffffffffffffffffffffffffffffffffff1673ffffffffffffffffffffffffffffffffffffffff1681526020019081526020016000206000015414610663576040517f08c379a000000000000000000000000000000000000000000000000000000000815260040161065a90610f08565b60405180910390fd5b600260003373ffffffffffffffffffffffffffffffffffffffff1673ffffffffffffffffffffffffffffffffffffffff16815260200190815260200160002060020154600160009054906101000a900473ffffffffffffffffffffffffffffffffffffffff1673ffffffffffffffffffffffffffffffffffffffff166370a08231306040518263ffffffff1660e01b81526004016107019190610df2565b60206040518083038186803b15801561071957600080fd5b505afa15801561072d573d6000803e3d6000fd5b505050506040513d601f19601f820116820180604052508101906107519190610c84565b1015610792576040517f08c379a000000000000000000000000000000000000000000000000000000000815260040161078990610f68565b60405180910390fd5b600260003373ffffffffffffffffffffffffffffffffffffffff1673ffffffffffffffffffffffffffffffffffffffff1681526020019081526020016000206003015460016107e19190610ff9565b421015610823576040517f08c379a000000000000000000000000000000000000000000000000000000000815260040161081a90610ea8565b60405180910390fd5b42600260003373ffffffffffffffffffffffffffffffffffffffff1673ffffffffffffffffffffffffffffffffffffffff16815260200190815260200160002060030181905550600160009054906101000a900473ffffffffffffffffffffffffffffffffffffffff1673ffffffffffffffffffffffffffffffffffffffff1663095ea7b33060646053600260003373ffffffffffffffffffffffffffffffffffffffff1673ffffffffffffffffffffffffffffffffffffffff168152602001908152602001600020600201546108fa9190611080565b610904919061104f565b6040518363ffffffff1660e01b8152600401610921929190610e44565b602060405180830381600087803b15801561093b57600080fd5b505af115801561094f573d6000803e3d6000fd5b505050506040513d601f19601f820116820180604052508101906109739190610c5b565b6109b2576040517f08c379a00000000000000000000000000000000000000000000000000000000081526004016109a990610e88565b60405180910390fd5b600160009054906101000a900473ffffffffffffffffffffffffffffffffffffffff1673ffffffffffffffffffffffffffffffffffffffff166323b872dd303360646053600260003373ffffffffffffffffffffffffffffffffffffffff1673ffffffffffffffffffffffffffffffffffffffff16815260200190815260200160002060020154610a439190611080565b610a4d919061104f565b6040518463ffffffff1660e01b8152600401610a6b93929190610e0d565b602060405180830381600087803b158015610a8557600080fd5b505af1158015610a99573d6000803e3d6000fd5b505050506040513d601f19601f82011682018060405250810190610abd9190610c5b565b610afc576040517f08c379a0000000000000000000000000000000000000000000000000000000008152600401610af390610f48565b60405180910390fd5b6000600260003373ffffffffffffffffffffffffffffffffffffffff1673ffffffffffffffffffffffffffffffffffffffff1681526020019081526020016000206002016000828254610b4f91906110da565b92505081905550565b60008054906101000a900473ffffffffffffffffffffffffffffffffffffffff1681565b600160009054906101000a900473ffffffffffffffffffffffffffffffffffffffff1681565b600081359050610bb18161136c565b92915050565b600081519050610bc681611383565b92915050565b600081359050610bdb8161139a565b92915050565b600081519050610bf08161139a565b92915050565b600060208284031215610c0857600080fd5b6000610c1684828501610ba2565b91505092915050565b60008060408385031215610c3257600080fd5b6000610c4085828601610ba2565b9250506020610c5185828601610bcc565b9150509250929050565b600060208284031215610c6d57600080fd5b6000610c7b84828501610bb7565b91505092915050565b600060208284031215610c9657600080fd5b6000610ca484828501610be1565b91505092915050565b610cb68161110e565b82525050565b610cc581611156565b82525050565b6000610cd8601083610fe8565b9150610ce3826111d8565b602082019050919050565b6000610cfb601783610fe8565b9150610d0682611201565b602082019050919050565b6000610d1e600f83610fe8565b9150610d298261122a565b602082019050919050565b6000610d41601783610fe8565b9150610d4c82611253565b602082019050919050565b6000610d64602a83610fe8565b9150610d6f8261127c565b604082019050919050565b6000610d87603083610fe8565b9150610d92826112cb565b604082019050919050565b6000610daa601983610fe8565b9150610db58261131a565b602082019050919050565b6000610dcd601b83610fe8565b9150610dd882611343565b602082019050919050565b610dec8161114c565b82525050565b6000602082019050610e076000830184610cad565b92915050565b6000606082019050610e226000830186610cad565b610e2f6020830185610cad565b610e3c6040830184610de3565b949350505050565b6000604082019050610e596000830185610cad565b610e666020830184610de3565b9392505050565b6000602082019050610e826000830184610cbc565b92915050565b60006020820190508181036000830152610ea181610ccb565b9050919050565b60006020820190508181036000830152610ec181610cee565b9050919050565b60006020820190508181036000830152610ee181610d11565b9050919050565b60006020820190508181036000830152610f0181610d34565b9050919050565b60006020820190508181036000830152610f2181610d57565b9050919050565b60006020820190508181036000830152610f4181610d7a565b9050919050565b60006020820190508181036000830152610f6181610d9d565b9050919050565b60006020820190508181036000830152610f8181610dc0565b9050919050565b6000602082019050610f9d6000830184610de3565b92915050565b6000608082019050610fb86000830187610de3565b610fc56020830186610cad565b610fd26040830185610de3565b610fdf6060830184610de3565b95945050505050565b600082825260208201905092915050565b60006110048261114c565b915061100f8361114c565b9250827fffffffffffffffffffffffffffffffffffffffffffffffffffffffffffffffff038211156110445761104361117a565b5b828201905092915050565b600061105a8261114c565b91506110658361114c565b925082611075576110746111a9565b5b828204905092915050565b600061108b8261114c565b91506110968361114c565b9250817fffffffffffffffffffffffffffffffffffffffffffffffffffffffffffffffff04831182151516156110cf576110ce61117a565b5b828202905092915050565b60006110e58261114c565b91506110f08361114c565b9250828210156111035761110261117a565b5b828203905092915050565b60006111198261112c565b9050919050565b60008115159050919050565b600073ffffffffffffffffffffffffffffffffffffffff82169050919050565b6000819050919050565b600061116182611168565b9050919050565b60006111738261112c565b9050919050565b7f4e487b7100000000000000000000000000000000000000000000000000000000600052601160045260246000fd5b7f4e487b7100000000000000000000000000000000000000000000000000000000600052601260045260246000fd5b7f4661696c656420746f20616c6c6f772e00000000000000000000000000000000600082015250565b7f4974206861736e2774206265656e2061206d6f6e74682e000000000000000000600082015250565b7f7472616e73666572204661696c65640000000000000000000000000000000000600082015250565b7f416c7265616479206861766520616e206163636f756e74000000000000000000600082015250565b7f546865206163636f756e742061742074686973206164647265737320646f657360008201527f206e6f7420657869737400000000000000000000000000000000000000000000602082015250565b7f5468657265206973206e6f206163636f756e74206173736f636961746564207760008201527f6974682074686973206164647265737300000000000000000000000000000000602082015250565b7f4661696c656420746f207472616e736665722066756e64732e00000000000000600082015250565b7f5468652062616c616e636520697320696e73756666696369656e740000000000600082015250565b6113758161110e565b811461138057600080fd5b50565b61138c81611120565b811461139757600080fd5b50565b6113a38161114c565b81146113ae57600080fd5b5056fea2646970667358221220796635571781e4a99d9801713af689f2b54c92b8d4f792b49eb0b087d3092f3264736f6c63430008040033",
  "linkReferences": {},
  "deployedLinkReferences": {}
}