{
  "_format": "hh-sol-artifact-1",
  "contractName": "Donate",
  "sourceName": "contracts/Donate.sol",
  "abi": [
    {
      "inputs": [
        {
          "internalType": "address",
          "name": "_WETH",
          "type": "address"
        },
        {
          "internalType": "address",
          "name": "_ROUTER02",
          "type": "address"
        }
      ],
      "stateMutability": "nonpayable",
      "type": "constructor"
    },
    {
      "inputs": [],
      "name": "CreateAccount",
      "outputs": [],
      "stateMutability": "nonpayable",
      "type": "function"
    },
    {
      "inputs": [
        {
          "internalType": "address",
          "name": "_to",
          "type": "address"
        },
        {
          "internalType": "address",
          "name": "_tokenIn",
          "type": "address"
        },
        {
          "internalType": "uint256",
          "name": "_amountIn",
          "type": "uint256"
        }
      ],
      "name": "Deposit",
      "outputs": [],
      "stateMutability": "nonpayable",
      "type": "function"
    },
    {
      "inputs": [],
      "name": "ROUTER02",
      "outputs": [
        {
          "internalType": "address",
          "name": "",
          "type": "address"
        }
      ],
      "stateMutability": "view",
      "type": "function"
    },
    {
      "inputs": [
        {
          "internalType": "address",
          "name": "",
          "type": "address"
        }
      ],
      "name": "VirtualAccounts",
      "outputs": [
        {
          "internalType": "uint256",
          "name": "check",
          "type": "uint256"
        },
        {
          "internalType": "address",
          "name": "owner",
          "type": "address"
        },
        {
          "internalType": "uint256",
          "name": "savingAmount",
          "type": "uint256"
        },
        {
          "internalType": "uint256",
          "name": "restriction",
          "type": "uint256"
        }
      ],
      "stateMutability": "view",
      "type": "function"
    },
    {
      "inputs": [],
      "name": "WETH",
      "outputs": [
        {
          "internalType": "address",
          "name": "",
          "type": "address"
        }
      ],
      "stateMutability": "view",
      "type": "function"
    },
    {
      "inputs": [],
      "name": "Withdrawal",
      "outputs": [],
      "stateMutability": "payable",
      "type": "function"
    },
    {
      "inputs": [],
      "name": "getAccountBalance",
      "outputs": [
        {
          "internalType": "uint256",
          "name": "",
          "type": "uint256"
        }
      ],
      "stateMutability": "view",
      "type": "function"
    },
    {
      "inputs": [],
      "name": "owner",
      "outputs": [
        {
          "internalType": "address",
          "name": "",
          "type": "address"
        }
      ],
      "stateMutability": "view",
      "type": "function"
    },
    {
      "inputs": [],
      "name": "token",
      "outputs": [
        {
          "internalType": "contract IERC20",
          "name": "",
          "type": "address"
        }
      ],
      "stateMutability": "view",
      "type": "function"
    }
  ],
  "bytecode": "0x60806040523480156200001157600080fd5b5060405162001ccc38038062001ccc833981810160405281019062000037919062000118565b336000806101000a81548173ffffffffffffffffffffffffffffffffffffffff021916908373ffffffffffffffffffffffffffffffffffffffff16021790555081600360006101000a81548173ffffffffffffffffffffffffffffffffffffffff021916908373ffffffffffffffffffffffffffffffffffffffff16021790555080600260006101000a81548173ffffffffffffffffffffffffffffffffffffffff021916908373ffffffffffffffffffffffffffffffffffffffff1602179055505050620001a7565b60008151905062000112816200018d565b92915050565b600080604083850312156200012c57600080fd5b60006200013c8582860162000101565b92505060206200014f8582860162000101565b9150509250929050565b600062000166826200016d565b9050919050565b600073ffffffffffffffffffffffffffffffffffffffff82169050919050565b620001988162000159565b8114620001a457600080fd5b50565b611b1580620001b76000396000f3fe6080604052600436106100865760003560e01c806370e44c6a1161005957806370e44c6a14610136578063740f4545146101405780638da5cb5b1461016b578063ad5c464814610196578063fc0c546a146101c157610086565b80630727fe331461008b5780630a77cbb0146100a25780635548c837146100e25780636896fabf1461010b575b600080fd5b34801561009757600080fd5b506100a06101ec565b005b3480156100ae57600080fd5b506100c960048036038101906100c4919061125f565b610359565b6040516100d99493929190611768565b60405180910390f35b3480156100ee57600080fd5b5061010960048036038101906101049190611288565b6103a9565b005b34801561011757600080fd5b50610120610b39565b60405161012d919061174d565b60405180910390f35b61013e610c08565b005b34801561014c57600080fd5b506101556110df565b60405161016291906115f7565b60405180910390f35b34801561017757600080fd5b50610180611105565b60405161018d91906115f7565b60405180910390f35b3480156101a257600080fd5b506101ab611129565b6040516101b891906115f7565b60405180910390f35b3480156101cd57600080fd5b506101d661114f565b6040516101e39190611672565b60405180910390f35b6000600460003373ffffffffffffffffffffffffffffffffffffffff1673ffffffffffffffffffffffffffffffffffffffff1681526020019081526020016000206000015414610271576040517f08c379a0000000000000000000000000000000000000000000000000000000008152600401610268906116ad565b60405180910390fd5b60006040518060800160405280600181526020013373ffffffffffffffffffffffffffffffffffffffff1681526020016000815260200142815250905080600460003373ffffffffffffffffffffffffffffffffffffffff1673ffffffffffffffffffffffffffffffffffffffff1681526020019081526020016000206000820151816000015560208201518160010160006101000a81548173ffffffffffffffffffffffffffffffffffffffff021916908373ffffffffffffffffffffffffffffffffffffffff160217905550604082015181600201556060820151816003015590505050565b60046020528060005260406000206000915090508060000154908060010160009054906101000a900473ffffffffffffffffffffffffffffffffffffffff16908060020154908060030154905084565b6001600460008573ffffffffffffffffffffffffffffffffffffffff1673ffffffffffffffffffffffffffffffffffffffff168152602001908152602001600020600001541461042e576040517f08c379a0000000000000000000000000000000000000000000000000000000008152600401610425906116cd565b60405180910390fd5b8173ffffffffffffffffffffffffffffffffffffffff166323b872dd3330846040518463ffffffff1660e01b815260040161046b93929190611612565b602060405180830381600087803b15801561048557600080fd5b505af1158015610499573d6000803e3d6000fd5b505050506040513d601f19601f820116820180604052508101906104bd9190611318565b508173ffffffffffffffffffffffffffffffffffffffff1663095ea7b3600260009054906101000a900473ffffffffffffffffffffffffffffffffffffffff16836040518363ffffffff1660e01b815260040161051b929190611649565b602060405180830381600087803b15801561053557600080fd5b505af1158015610549573d6000803e3d6000fd5b505050506040513d601f19601f8201168201806040525081019061056d9190611318565b506060600360009054906101000a900473ffffffffffffffffffffffffffffffffffffffff1673ffffffffffffffffffffffffffffffffffffffff168373ffffffffffffffffffffffffffffffffffffffff16148061063b5750600360009054906101000a900473ffffffffffffffffffffffffffffffffffffffff1673ffffffffffffffffffffffffffffffffffffffff16600360009054906101000a900473ffffffffffffffffffffffffffffffffffffffff1673ffffffffffffffffffffffffffffffffffffffff16145b156107c357600267ffffffffffffffff811115610681577f4e487b7100000000000000000000000000000000000000000000000000000000600052604160045260246000fd5b6040519080825280602002602001820160405280156106af5781602001602082028036833780820191505090505b50905082816000815181106106ed577f4e487b7100000000000000000000000000000000000000000000000000000000600052603260045260246000fd5b602002602001019073ffffffffffffffffffffffffffffffffffffffff16908173ffffffffffffffffffffffffffffffffffffffff1681525050600360009054906101000a900473ffffffffffffffffffffffffffffffffffffffff1681600181518110610784577f4e487b7100000000000000000000000000000000000000000000000000000000600052603260045260246000fd5b602002602001019073ffffffffffffffffffffffffffffffffffffffff16908173ffffffffffffffffffffffffffffffffffffffff16815250506109d9565b600367ffffffffffffffff811115610804577f4e487b7100000000000000000000000000000000000000000000000000000000600052604160045260246000fd5b6040519080825280602002602001820160405280156108325781602001602082028036833780820191505090505b5090508281600081518110610870577f4e487b7100000000000000000000000000000000000000000000000000000000600052603260045260246000fd5b602002602001019073ffffffffffffffffffffffffffffffffffffffff16908173ffffffffffffffffffffffffffffffffffffffff1681525050600360009054906101000a900473ffffffffffffffffffffffffffffffffffffffff1681600181518110610907577f4e487b7100000000000000000000000000000000000000000000000000000000600052603260045260246000fd5b602002602001019073ffffffffffffffffffffffffffffffffffffffff16908173ffffffffffffffffffffffffffffffffffffffff1681525050600360009054906101000a900473ffffffffffffffffffffffffffffffffffffffff168160028151811061099e577f4e487b7100000000000000000000000000000000000000000000000000000000600052603260045260246000fd5b602002602001019073ffffffffffffffffffffffffffffffffffffffff16908173ffffffffffffffffffffffffffffffffffffffff16815250505b6000600260009054906101000a900473ffffffffffffffffffffffffffffffffffffffff1673ffffffffffffffffffffffffffffffffffffffff166338ed17398460008530426040518663ffffffff1660e01b8152600401610a3f9594939291906117ad565b600060405180830381600087803b158015610a5957600080fd5b505af1158015610a6d573d6000803e3d6000fd5b505050506040513d6000823e3d601f19601f82011682018060405250810190610a9691906112d7565b905080600181518110610ad2577f4e487b7100000000000000000000000000000000000000000000000000000000600052603260045260246000fd5b6020026020010151600460008773ffffffffffffffffffffffffffffffffffffffff1673ffffffffffffffffffffffffffffffffffffffff1681526020019081526020016000206002016000828254610b2b91906118ae565b925050819055505050505050565b60006001600460003373ffffffffffffffffffffffffffffffffffffffff1673ffffffffffffffffffffffffffffffffffffffff1681526020019081526020016000206000015414610bc0576040517f08c379a0000000000000000000000000000000000000000000000000000000008152600401610bb7906116ed565b60405180910390fd5b600460003373ffffffffffffffffffffffffffffffffffffffff1673ffffffffffffffffffffffffffffffffffffffff16815260200190815260200160002060020154905090565b6001600460003373ffffffffffffffffffffffffffffffffffffffff1673ffffffffffffffffffffffffffffffffffffffff1681526020019081526020016000206000015414610c8d576040517f08c379a0000000000000000000000000000000000000000000000000000000008152600401610c84906116cd565b60405180910390fd5b600460003373ffffffffffffffffffffffffffffffffffffffff1673ffffffffffffffffffffffffffffffffffffffff16815260200190815260200160002060020154600360009054906101000a900473ffffffffffffffffffffffffffffffffffffffff1673ffffffffffffffffffffffffffffffffffffffff166370a08231306040518263ffffffff1660e01b8152600401610d2b91906115f7565b60206040518083038186803b158015610d4357600080fd5b505afa158015610d57573d6000803e3d6000fd5b505050506040513d601f19601f82011682018060405250810190610d7b9190611341565b1015610dbc576040517f08c379a0000000000000000000000000000000000000000000000000000000008152600401610db39061172d565b60405180910390fd5b42600460003373ffffffffffffffffffffffffffffffffffffffff1673ffffffffffffffffffffffffffffffffffffffff16815260200190815260200160002060030181905550600360009054906101000a900473ffffffffffffffffffffffffffffffffffffffff1673ffffffffffffffffffffffffffffffffffffffff1663095ea7b33060646053600460003373ffffffffffffffffffffffffffffffffffffffff1673ffffffffffffffffffffffffffffffffffffffff16815260200190815260200160002060020154610e939190611935565b610e9d9190611904565b6040518363ffffffff1660e01b8152600401610eba929190611649565b602060405180830381600087803b158015610ed457600080fd5b505af1158015610ee8573d6000803e3d6000fd5b505050506040513d601f19601f82011682018060405250810190610f0c9190611318565b610f4b576040517f08c379a0000000000000000000000000000000000000000000000000000000008152600401610f429061168d565b60405180910390fd5b600360009054906101000a900473ffffffffffffffffffffffffffffffffffffffff1673ffffffffffffffffffffffffffffffffffffffff166323b872dd303360646053600460003373ffffffffffffffffffffffffffffffffffffffff1673ffffffffffffffffffffffffffffffffffffffff16815260200190815260200160002060020154610fdc9190611935565b610fe69190611904565b6040518463ffffffff1660e01b815260040161100493929190611612565b602060405180830381600087803b15801561101e57600080fd5b505af1158015611032573d6000803e3d6000fd5b505050506040513d601f19601f820116820180604052508101906110569190611318565b611095576040517f08c379a000000000000000000000000000000000000000000000000000000000815260040161108c9061170d565b60405180910390fd5b6000600460003373ffffffffffffffffffffffffffffffffffffffff1673ffffffffffffffffffffffffffffffffffffffff16815260200190815260200160002060020181905550565b600260009054906101000a900473ffffffffffffffffffffffffffffffffffffffff1681565b60008054906101000a900473ffffffffffffffffffffffffffffffffffffffff1681565b600360009054906101000a900473ffffffffffffffffffffffffffffffffffffffff1681565b600160009054906101000a900473ffffffffffffffffffffffffffffffffffffffff1681565b600061118861118384611838565b611807565b905080838252602082019050828560208602820111156111a757600080fd5b60005b858110156111d757816111bd888261124a565b8452602084019350602083019250506001810190506111aa565b5050509392505050565b6000813590506111f081611a9a565b92915050565b600082601f83011261120757600080fd5b8151611217848260208601611175565b91505092915050565b60008151905061122f81611ab1565b92915050565b60008135905061124481611ac8565b92915050565b60008151905061125981611ac8565b92915050565b60006020828403121561127157600080fd5b600061127f848285016111e1565b91505092915050565b60008060006060848603121561129d57600080fd5b60006112ab868287016111e1565b93505060206112bc868287016111e1565b92505060406112cd86828701611235565b9150509250925092565b6000602082840312156112e957600080fd5b600082015167ffffffffffffffff81111561130357600080fd5b61130f848285016111f6565b91505092915050565b60006020828403121561132a57600080fd5b600061133884828501611220565b91505092915050565b60006020828403121561135357600080fd5b60006113618482850161124a565b91505092915050565b60006113768383611382565b60208301905092915050565b61138b8161198f565b82525050565b61139a8161198f565b82525050565b60006113ab82611874565b6113b5818561188c565b93506113c083611864565b8060005b838110156113f15781516113d8888261136a565b97506113e38361187f565b9250506001810190506113c4565b5085935050505092915050565b611407816119d7565b82525050565b611416816119fb565b82525050565b600061142960108361189d565b91507f4661696c656420746f20616c6c6f772e000000000000000000000000000000006000830152602082019050919050565b600061146960178361189d565b91507f416c7265616479206861766520616e206163636f756e740000000000000000006000830152602082019050919050565b60006114a9602a8361189d565b91507f546865206163636f756e742061742074686973206164647265737320646f657360008301527f206e6f74206578697374000000000000000000000000000000000000000000006020830152604082019050919050565b600061150f60308361189d565b91507f5468657265206973206e6f206163636f756e74206173736f636961746564207760008301527f69746820746869732061646472657373000000000000000000000000000000006020830152604082019050919050565b600061157560198361189d565b91507f4661696c656420746f207472616e736665722066756e64732e000000000000006000830152602082019050919050565b60006115b5601b8361189d565b91507f5468652062616c616e636520697320696e73756666696369656e7400000000006000830152602082019050919050565b6115f1816119cd565b82525050565b600060208201905061160c6000830184611391565b92915050565b60006060820190506116276000830186611391565b6116346020830185611391565b61164160408301846115e8565b949350505050565b600060408201905061165e6000830185611391565b61166b60208301846115e8565b9392505050565b600060208201905061168760008301846113fe565b92915050565b600060208201905081810360008301526116a68161141c565b9050919050565b600060208201905081810360008301526116c68161145c565b9050919050565b600060208201905081810360008301526116e68161149c565b9050919050565b6000602082019050818103600083015261170681611502565b9050919050565b6000602082019050818103600083015261172681611568565b9050919050565b60006020820190508181036000830152611746816115a8565b9050919050565b600060208201905061176260008301846115e8565b92915050565b600060808201905061177d60008301876115e8565b61178a6020830186611391565b61179760408301856115e8565b6117a460608301846115e8565b95945050505050565b600060a0820190506117c260008301886115e8565b6117cf602083018761140d565b81810360408301526117e181866113a0565b90506117f06060830185611391565b6117fd60808301846115e8565b9695505050505050565b6000604051905081810181811067ffffffffffffffff8211171561182e5761182d611a6b565b5b8060405250919050565b600067ffffffffffffffff82111561185357611852611a6b565b5b602082029050602081019050919050565b6000819050602082019050919050565b600081519050919050565b6000602082019050919050565b600082825260208201905092915050565b600082825260208201905092915050565b60006118b9826119cd565b91506118c4836119cd565b9250827fffffffffffffffffffffffffffffffffffffffffffffffffffffffffffffffff038211156118f9576118f8611a0d565b5b828201905092915050565b600061190f826119cd565b915061191a836119cd565b92508261192a57611929611a3c565b5b828204905092915050565b6000611940826119cd565b915061194b836119cd565b9250817fffffffffffffffffffffffffffffffffffffffffffffffffffffffffffffffff048311821515161561198457611983611a0d565b5b828202905092915050565b600061199a826119ad565b9050919050565b60008115159050919050565b600073ffffffffffffffffffffffffffffffffffffffff82169050919050565b6000819050919050565b60006119e2826119e9565b9050919050565b60006119f4826119ad565b9050919050565b6000611a06826119cd565b9050919050565b7f4e487b7100000000000000000000000000000000000000000000000000000000600052601160045260246000fd5b7f4e487b7100000000000000000000000000000000000000000000000000000000600052601260045260246000fd5b7f4e487b7100000000000000000000000000000000000000000000000000000000600052604160045260246000fd5b611aa38161198f565b8114611aae57600080fd5b50565b611aba816119a1565b8114611ac557600080fd5b50565b611ad1816119cd565b8114611adc57600080fd5b5056fea26469706673582212202a260890034595e1aa44113a9ed8aebe39bc066d852bd9a37ad99ebe96a0ab0564736f6c63430008000033",
  "linkReferences": {},
  "deployedLinkReferences": {}
}