{
  "_format": "hh-sol-artifact-1",
  "contractName": "Donate",
  "sourceName": "contracts/Donate.sol",
  "abi": [
    {
      "inputs": [
        {
          "internalType": "address",
          "name": "_token",
          "type": "address"
        }
      ],
      "stateMutability": "nonpayable",
      "type": "constructor"
    },
    {
      "inputs": [],
      "name": "Opening",
      "outputs": [],
      "stateMutability": "nonpayable",
      "type": "function"
    },
    {
      "inputs": [
        {
          "internalType": "address",
          "name": "_to",
          "type": "address"
        },
        {
          "internalType": "uint256",
          "name": "_amount",
          "type": "uint256"
        }
      ],
      "name": "Transfers",
      "outputs": [],
      "stateMutability": "nonpayable",
      "type": "function"
    },
    {
      "inputs": [
        {
          "internalType": "address",
          "name": "",
          "type": "address"
        }
      ],
      "name": "VirtualAccounts",
      "outputs": [
        {
          "internalType": "uint256",
          "name": "check",
          "type": "uint256"
        },
        {
          "internalType": "address",
          "name": "owner",
          "type": "address"
        },
        {
          "internalType": "uint256",
          "name": "savingAmount",
          "type": "uint256"
        },
        {
          "internalType": "uint256",
          "name": "restriction",
          "type": "uint256"
        }
      ],
      "stateMutability": "view",
      "type": "function"
    },
    {
      "inputs": [],
      "name": "Withdrawal",
      "outputs": [],
      "stateMutability": "payable",
      "type": "function"
    },
    {
      "inputs": [],
      "name": "getVirtualAccountBalance",
      "outputs": [
        {
          "internalType": "uint256",
          "name": "",
          "type": "uint256"
        }
      ],
      "stateMutability": "view",
      "type": "function"
    },
    {
      "inputs": [],
      "name": "owner",
      "outputs": [
        {
          "internalType": "address",
          "name": "",
          "type": "address"
        }
      ],
      "stateMutability": "view",
      "type": "function"
    },
    {
      "inputs": [],
      "name": "token",
      "outputs": [
        {
          "internalType": "contract IERC20",
          "name": "",
          "type": "address"
        }
      ],
      "stateMutability": "view",
      "type": "function"
    }
  ],
  "bytecode": "0x60806040523480156200001157600080fd5b5060405162001501380380620015018339818101604052810190620000379190620000d6565b336000806101000a81548173ffffffffffffffffffffffffffffffffffffffff021916908373ffffffffffffffffffffffffffffffffffffffff16021790555080600160006101000a81548173ffffffffffffffffffffffffffffffffffffffff021916908373ffffffffffffffffffffffffffffffffffffffff1602179055505062000150565b600081519050620000d08162000136565b92915050565b600060208284031215620000e957600080fd5b6000620000f984828501620000bf565b91505092915050565b60006200010f8262000116565b9050919050565b600073ffffffffffffffffffffffffffffffffffffffff82169050919050565b620001418162000102565b81146200014d57600080fd5b50565b6113a180620001606000396000f3fe6080604052600436106100705760003560e01c8063422a80861161004e578063422a8086146100f757806370e44c6a146101205780638da5cb5b1461012a578063fc0c546a1461015557610070565b80630a77cbb0146100755780632e4c6d3a146100b5578063359302e6146100cc575b600080fd5b34801561008157600080fd5b5061009c60048036038101906100979190610be4565b610180565b6040516100ac9493929190610f91565b60405180910390f35b3480156100c157600080fd5b506100ca6101d0565b005b3480156100d857600080fd5b506100e161033d565b6040516100ee9190610f76565b60405180910390f35b34801561010357600080fd5b5061011e60048036038101906101199190610c0d565b61040c565b005b6101286105de565b005b34801561013657600080fd5b5061013f610b46565b60405161014c9190610de0565b60405180910390f35b34801561016157600080fd5b5061016a610b6a565b6040516101779190610e5b565b60405180910390f35b60026020528060005260406000206000915090508060000154908060010160009054906101000a900473ffffffffffffffffffffffffffffffffffffffff16908060020154908060030154905084565b6000600260003373ffffffffffffffffffffffffffffffffffffffff1673ffffffffffffffffffffffffffffffffffffffff1681526020019081526020016000206000015414610255576040517f08c379a000000000000000000000000000000000000000000000000000000000815260040161024c90610ed6565b60405180910390fd5b60006040518060800160405280600181526020013373ffffffffffffffffffffffffffffffffffffffff1681526020016000815260200142815250905080600260003373ffffffffffffffffffffffffffffffffffffffff1673ffffffffffffffffffffffffffffffffffffffff1681526020019081526020016000206000820151816000015560208201518160010160006101000a81548173ffffffffffffffffffffffffffffffffffffffff021916908373ffffffffffffffffffffffffffffffffffffffff160217905550604082015181600201556060820151816003015590505050565b60006001600260003373ffffffffffffffffffffffffffffffffffffffff1673ffffffffffffffffffffffffffffffffffffffff16815260200190815260200160002060000154146103c4576040517f08c379a00000000000000000000000000000000000000000000000000000000081526004016103bb90610f16565b60405180910390fd5b600260003373ffffffffffffffffffffffffffffffffffffffff1673ffffffffffffffffffffffffffffffffffffffff16815260200190815260200160002060020154905090565b6001600260008473ffffffffffffffffffffffffffffffffffffffff1673ffffffffffffffffffffffffffffffffffffffff1681526020019081526020016000206000015414610491576040517f08c379a000000000000000000000000000000000000000000000000000000000815260040161048890610ef6565b60405180910390fd5b600160009054906101000a900473ffffffffffffffffffffffffffffffffffffffff1673ffffffffffffffffffffffffffffffffffffffff166323b872dd3330846040518463ffffffff1660e01b81526004016104f093929190610dfb565b602060405180830381600087803b15801561050a57600080fd5b505af115801561051e573d6000803e3d6000fd5b505050506040513d601f19601f820116820180604052508101906105429190610c49565b610581576040517f08c379a000000000000000000000000000000000000000000000000000000000815260040161057890610eb6565b60405180910390fd5b80600260008473ffffffffffffffffffffffffffffffffffffffff1673ffffffffffffffffffffffffffffffffffffffff16815260200190815260200160002060020160008282546105d39190610fe7565b925050819055505050565b6001600260003373ffffffffffffffffffffffffffffffffffffffff1673ffffffffffffffffffffffffffffffffffffffff1681526020019081526020016000206000015414610663576040517f08c379a000000000000000000000000000000000000000000000000000000000815260040161065a90610ef6565b60405180910390fd5b600260003373ffffffffffffffffffffffffffffffffffffffff1673ffffffffffffffffffffffffffffffffffffffff16815260200190815260200160002060020154600160009054906101000a900473ffffffffffffffffffffffffffffffffffffffff1673ffffffffffffffffffffffffffffffffffffffff166370a08231306040518263ffffffff1660e01b81526004016107019190610de0565b60206040518083038186803b15801561071957600080fd5b505afa15801561072d573d6000803e3d6000fd5b505050506040513d601f19601f820116820180604052508101906107519190610c72565b1015610792576040517f08c379a000000000000000000000000000000000000000000000000000000000815260040161078990610f56565b60405180910390fd5b600260003373ffffffffffffffffffffffffffffffffffffffff1673ffffffffffffffffffffffffffffffffffffffff1681526020019081526020016000206003015460016107e19190610fe7565b421015610823576040517f08c379a000000000000000000000000000000000000000000000000000000000815260040161081a90610e96565b60405180910390fd5b42600260003373ffffffffffffffffffffffffffffffffffffffff1673ffffffffffffffffffffffffffffffffffffffff16815260200190815260200160002060030181905550600160009054906101000a900473ffffffffffffffffffffffffffffffffffffffff1673ffffffffffffffffffffffffffffffffffffffff1663095ea7b33060646053600260003373ffffffffffffffffffffffffffffffffffffffff1673ffffffffffffffffffffffffffffffffffffffff168152602001908152602001600020600201546108fa919061106e565b610904919061103d565b6040518363ffffffff1660e01b8152600401610921929190610e32565b602060405180830381600087803b15801561093b57600080fd5b505af115801561094f573d6000803e3d6000fd5b505050506040513d601f19601f820116820180604052508101906109739190610c49565b6109b2576040517f08c379a00000000000000000000000000000000000000000000000000000000081526004016109a990610e76565b60405180910390fd5b600160009054906101000a900473ffffffffffffffffffffffffffffffffffffffff1673ffffffffffffffffffffffffffffffffffffffff166323b872dd303360646053600260003373ffffffffffffffffffffffffffffffffffffffff1673ffffffffffffffffffffffffffffffffffffffff16815260200190815260200160002060020154610a43919061106e565b610a4d919061103d565b6040518463ffffffff1660e01b8152600401610a6b93929190610dfb565b602060405180830381600087803b158015610a8557600080fd5b505af1158015610a99573d6000803e3d6000fd5b505050506040513d601f19601f82011682018060405250810190610abd9190610c49565b610afc576040517f08c379a0000000000000000000000000000000000000000000000000000000008152600401610af390610f36565b60405180910390fd5b6000600260003373ffffffffffffffffffffffffffffffffffffffff1673ffffffffffffffffffffffffffffffffffffffff16815260200190815260200160002060020181905550565b60008054906101000a900473ffffffffffffffffffffffffffffffffffffffff1681565b600160009054906101000a900473ffffffffffffffffffffffffffffffffffffffff1681565b600081359050610b9f81611326565b92915050565b600081519050610bb48161133d565b92915050565b600081359050610bc981611354565b92915050565b600081519050610bde81611354565b92915050565b600060208284031215610bf657600080fd5b6000610c0484828501610b90565b91505092915050565b60008060408385031215610c2057600080fd5b6000610c2e85828601610b90565b9250506020610c3f85828601610bba565b9150509250929050565b600060208284031215610c5b57600080fd5b6000610c6984828501610ba5565b91505092915050565b600060208284031215610c8457600080fd5b6000610c9284828501610bcf565b91505092915050565b610ca4816110c8565b82525050565b610cb381611110565b82525050565b6000610cc6601083610fd6565b9150610cd182611192565b602082019050919050565b6000610ce9601783610fd6565b9150610cf4826111bb565b602082019050919050565b6000610d0c600f83610fd6565b9150610d17826111e4565b602082019050919050565b6000610d2f601783610fd6565b9150610d3a8261120d565b602082019050919050565b6000610d52602a83610fd6565b9150610d5d82611236565b604082019050919050565b6000610d75603083610fd6565b9150610d8082611285565b604082019050919050565b6000610d98601983610fd6565b9150610da3826112d4565b602082019050919050565b6000610dbb601b83610fd6565b9150610dc6826112fd565b602082019050919050565b610dda81611106565b82525050565b6000602082019050610df56000830184610c9b565b92915050565b6000606082019050610e106000830186610c9b565b610e1d6020830185610c9b565b610e2a6040830184610dd1565b949350505050565b6000604082019050610e476000830185610c9b565b610e546020830184610dd1565b9392505050565b6000602082019050610e706000830184610caa565b92915050565b60006020820190508181036000830152610e8f81610cb9565b9050919050565b60006020820190508181036000830152610eaf81610cdc565b9050919050565b60006020820190508181036000830152610ecf81610cff565b9050919050565b60006020820190508181036000830152610eef81610d22565b9050919050565b60006020820190508181036000830152610f0f81610d45565b9050919050565b60006020820190508181036000830152610f2f81610d68565b9050919050565b60006020820190508181036000830152610f4f81610d8b565b9050919050565b60006020820190508181036000830152610f6f81610dae565b9050919050565b6000602082019050610f8b6000830184610dd1565b92915050565b6000608082019050610fa66000830187610dd1565b610fb36020830186610c9b565b610fc06040830185610dd1565b610fcd6060830184610dd1565b95945050505050565b600082825260208201905092915050565b6000610ff282611106565b9150610ffd83611106565b9250827fffffffffffffffffffffffffffffffffffffffffffffffffffffffffffffffff0382111561103257611031611134565b5b828201905092915050565b600061104882611106565b915061105383611106565b92508261106357611062611163565b5b828204905092915050565b600061107982611106565b915061108483611106565b9250817fffffffffffffffffffffffffffffffffffffffffffffffffffffffffffffffff04831182151516156110bd576110bc611134565b5b828202905092915050565b60006110d3826110e6565b9050919050565b60008115159050919050565b600073ffffffffffffffffffffffffffffffffffffffff82169050919050565b6000819050919050565b600061111b82611122565b9050919050565b600061112d826110e6565b9050919050565b7f4e487b7100000000000000000000000000000000000000000000000000000000600052601160045260246000fd5b7f4e487b7100000000000000000000000000000000000000000000000000000000600052601260045260246000fd5b7f4661696c656420746f20616c6c6f772e00000000000000000000000000000000600082015250565b7f4974206861736e2774206265656e2061206d6f6e74682e000000000000000000600082015250565b7f7472616e73666572204661696c65640000000000000000000000000000000000600082015250565b7f416c7265616479206861766520616e206163636f756e74000000000000000000600082015250565b7f546865206163636f756e742061742074686973206164647265737320646f657360008201527f206e6f7420657869737400000000000000000000000000000000000000000000602082015250565b7f5468657265206973206e6f206163636f756e74206173736f636961746564207760008201527f6974682074686973206164647265737300000000000000000000000000000000602082015250565b7f4661696c656420746f207472616e736665722066756e64732e00000000000000600082015250565b7f5468652062616c616e636520697320696e73756666696369656e740000000000600082015250565b61132f816110c8565b811461133a57600080fd5b50565b611346816110da565b811461135157600080fd5b50565b61135d81611106565b811461136857600080fd5b5056fea2646970667358221220694dc1399ecd71540ae06156c89d571ee6381bfa5b7817d64a44d0d009fd661f64736f6c63430008040033",
  "linkReferences": {},
  "deployedLinkReferences": {}
}